{
  "_format": "hh-sol-artifact-1",
  "contractName": "NFTerc721",
  "sourceName": "contracts/NFTerc721.sol",
  "abi": [
    {
      "inputs": [],
      "stateMutability": "nonpayable",
      "type": "constructor"
    },
    {
      "inputs": [],
      "name": "ApprovalCallerNotOwnerNorApproved",
      "type": "error"
    },
    {
      "inputs": [],
      "name": "ApprovalQueryForNonexistentToken",
      "type": "error"
    },
    {
      "inputs": [],
      "name": "BalanceQueryForZeroAddress",
      "type": "error"
    },
    {
      "inputs": [],
      "name": "MintERC2309QuantityExceedsLimit",
      "type": "error"
    },
    {
      "inputs": [],
      "name": "MintToZeroAddress",
      "type": "error"
    },
    {
      "inputs": [],
      "name": "MintZeroQuantity",
      "type": "error"
    },
    {
      "inputs": [],
      "name": "OwnerQueryForNonexistentToken",
      "type": "error"
    },
    {
      "inputs": [],
      "name": "OwnershipNotInitializedForExtraData",
      "type": "error"
    },
    {
      "inputs": [],
      "name": "TransferCallerNotOwnerNorApproved",
      "type": "error"
    },
    {
      "inputs": [],
      "name": "TransferFromIncorrectOwner",
      "type": "error"
    },
    {
      "inputs": [],
      "name": "TransferToNonERC721ReceiverImplementer",
      "type": "error"
    },
    {
      "inputs": [],
      "name": "TransferToZeroAddress",
      "type": "error"
    },
    {
      "inputs": [],
      "name": "URIQueryForNonexistentToken",
      "type": "error"
    },
    {
      "anonymous": false,
      "inputs": [
        {
          "indexed": true,
          "internalType": "address",
          "name": "owner",
          "type": "address"
        },
        {
          "indexed": true,
          "internalType": "address",
          "name": "approved",
          "type": "address"
        },
        {
          "indexed": true,
          "internalType": "uint256",
          "name": "tokenId",
          "type": "uint256"
        }
      ],
      "name": "Approval",
      "type": "event"
    },
    {
      "anonymous": false,
      "inputs": [
        {
          "indexed": true,
          "internalType": "address",
          "name": "owner",
          "type": "address"
        },
        {
          "indexed": true,
          "internalType": "address",
          "name": "operator",
          "type": "address"
        },
        {
          "indexed": false,
          "internalType": "bool",
          "name": "approved",
          "type": "bool"
        }
      ],
      "name": "ApprovalForAll",
      "type": "event"
    },
    {
      "anonymous": false,
      "inputs": [
        {
          "indexed": true,
          "internalType": "uint256",
          "name": "fromTokenId",
          "type": "uint256"
        },
        {
          "indexed": false,
          "internalType": "uint256",
          "name": "toTokenId",
          "type": "uint256"
        },
        {
          "indexed": true,
          "internalType": "address",
          "name": "from",
          "type": "address"
        },
        {
          "indexed": true,
          "internalType": "address",
          "name": "to",
          "type": "address"
        }
      ],
      "name": "ConsecutiveTransfer",
      "type": "event"
    },
    {
      "anonymous": false,
      "inputs": [
        {
          "indexed": true,
          "internalType": "address",
          "name": "from",
          "type": "address"
        },
        {
          "indexed": true,
          "internalType": "address",
          "name": "to",
          "type": "address"
        },
        {
          "indexed": true,
          "internalType": "uint256",
          "name": "tokenId",
          "type": "uint256"
        }
      ],
      "name": "Transfer",
      "type": "event"
    },
    {
      "inputs": [
        {
          "internalType": "address",
          "name": "to",
          "type": "address"
        },
        {
          "internalType": "uint256",
          "name": "tokenId",
          "type": "uint256"
        }
      ],
      "name": "approve",
      "outputs": [],
      "stateMutability": "payable",
      "type": "function"
    },
    {
      "inputs": [
        {
          "internalType": "address",
          "name": "owner",
          "type": "address"
        }
      ],
      "name": "balanceOf",
      "outputs": [
        {
          "internalType": "uint256",
          "name": "",
          "type": "uint256"
        }
      ],
      "stateMutability": "view",
      "type": "function"
    },
    {
      "inputs": [
        {
          "internalType": "uint256",
          "name": "",
          "type": "uint256"
        }
      ],
      "name": "description",
      "outputs": [
        {
          "internalType": "string",
          "name": "",
          "type": "string"
        }
      ],
      "stateMutability": "view",
      "type": "function"
    },
    {
      "inputs": [
        {
          "internalType": "uint256",
          "name": "tokenId",
          "type": "uint256"
        }
      ],
      "name": "getApproved",
      "outputs": [
        {
          "internalType": "address",
          "name": "",
          "type": "address"
        }
      ],
      "stateMutability": "view",
      "type": "function"
    },
    {
      "inputs": [
        {
          "internalType": "address",
          "name": "owner",
          "type": "address"
        },
        {
          "internalType": "address",
          "name": "operator",
          "type": "address"
        }
      ],
      "name": "isApprovedForAll",
      "outputs": [
        {
          "internalType": "bool",
          "name": "",
          "type": "bool"
        }
      ],
      "stateMutability": "view",
      "type": "function"
    },
    {
      "inputs": [
        {
          "internalType": "uint256",
          "name": "quantity",
          "type": "uint256"
        }
      ],
      "name": "mint",
      "outputs": [],
      "stateMutability": "payable",
      "type": "function"
    },
    {
      "inputs": [],
      "name": "name",
      "outputs": [
        {
          "internalType": "string",
          "name": "",
          "type": "string"
        }
      ],
      "stateMutability": "view",
      "type": "function"
    },
    {
      "inputs": [],
      "name": "owner",
      "outputs": [
        {
          "internalType": "address",
          "name": "",
          "type": "address"
        }
      ],
      "stateMutability": "view",
      "type": "function"
    },
    {
      "inputs": [
        {
          "internalType": "uint256",
          "name": "tokenId",
          "type": "uint256"
        }
      ],
      "name": "ownerOf",
      "outputs": [
        {
          "internalType": "address",
          "name": "",
          "type": "address"
        }
      ],
      "stateMutability": "view",
      "type": "function"
    },
    {
      "inputs": [],
      "name": "promptDescription",
      "outputs": [
        {
          "internalType": "string[]",
          "name": "",
          "type": "string[]"
        }
      ],
      "stateMutability": "view",
      "type": "function"
    },
    {
      "inputs": [],
      "name": "promptUsed",
      "outputs": [],
      "stateMutability": "nonpayable",
      "type": "function"
    },
    {
      "inputs": [
        {
          "internalType": "address",
          "name": "from",
          "type": "address"
        },
        {
          "internalType": "address",
          "name": "to",
          "type": "address"
        },
        {
          "internalType": "uint256",
          "name": "tokenId",
          "type": "uint256"
        }
      ],
      "name": "safeTransferFrom",
      "outputs": [],
      "stateMutability": "payable",
      "type": "function"
    },
    {
      "inputs": [
        {
          "internalType": "address",
          "name": "from",
          "type": "address"
        },
        {
          "internalType": "address",
          "name": "to",
          "type": "address"
        },
        {
          "internalType": "uint256",
          "name": "tokenId",
          "type": "uint256"
        },
        {
          "internalType": "bytes",
          "name": "_data",
          "type": "bytes"
        }
      ],
      "name": "safeTransferFrom",
      "outputs": [],
      "stateMutability": "payable",
      "type": "function"
    },
    {
      "inputs": [
        {
          "internalType": "address",
          "name": "operator",
          "type": "address"
        },
        {
          "internalType": "bool",
          "name": "approved",
          "type": "bool"
        }
      ],
      "name": "setApprovalForAll",
      "outputs": [],
      "stateMutability": "nonpayable",
      "type": "function"
    },
    {
      "inputs": [
        {
          "internalType": "bytes4",
          "name": "interfaceId",
          "type": "bytes4"
        }
      ],
      "name": "supportsInterface",
      "outputs": [
        {
          "internalType": "bool",
          "name": "",
          "type": "bool"
        }
      ],
      "stateMutability": "view",
      "type": "function"
    },
    {
      "inputs": [],
      "name": "symbol",
      "outputs": [
        {
          "internalType": "string",
          "name": "",
          "type": "string"
        }
      ],
      "stateMutability": "view",
      "type": "function"
    },
    {
      "inputs": [
        {
          "internalType": "uint256",
          "name": "tokenId",
          "type": "uint256"
        }
      ],
      "name": "tokenURI",
      "outputs": [
        {
          "internalType": "string",
          "name": "",
          "type": "string"
        }
      ],
      "stateMutability": "view",
      "type": "function"
    },
    {
      "inputs": [],
      "name": "totalSupply",
      "outputs": [
        {
          "internalType": "uint256",
          "name": "",
          "type": "uint256"
        }
      ],
      "stateMutability": "view",
      "type": "function"
    },
    {
      "inputs": [
        {
          "internalType": "address",
          "name": "from",
          "type": "address"
        },
        {
          "internalType": "address",
          "name": "to",
          "type": "address"
        },
        {
          "internalType": "uint256",
          "name": "tokenId",
          "type": "uint256"
        }
      ],
      "name": "transferFrom",
      "outputs": [],
      "stateMutability": "payable",
      "type": "function"
    }
  ],
  "bytecode": "0x608060405260405180608001604052806050815260200162002a2b60509139600990816200002e9190620003ab565b503480156200003c57600080fd5b506040518060400160405280600981526020017f48756d616e5261636500000000000000000000000000000000000000000000008152506040518060400160405280600281526020017f48520000000000000000000000000000000000000000000000000000000000008152508160029081620000ba9190620003ab565b508060039081620000cc9190620003ab565b50620000dd6200012c60201b60201c565b600081905550505033600860006101000a81548173ffffffffffffffffffffffffffffffffffffffff021916908373ffffffffffffffffffffffffffffffffffffffff16021790555062000492565b600090565b600081519050919050565b7f4e487b7100000000000000000000000000000000000000000000000000000000600052604160045260246000fd5b7f4e487b7100000000000000000000000000000000000000000000000000000000600052602260045260246000fd5b60006002820490506001821680620001b357607f821691505b602082108103620001c957620001c86200016b565b5b50919050565b60008190508160005260206000209050919050565b60006020601f8301049050919050565b600082821b905092915050565b600060088302620002337fffffffffffffffffffffffffffffffffffffffffffffffffffffffffffffffff82620001f4565b6200023f8683620001f4565b95508019841693508086168417925050509392505050565b6000819050919050565b6000819050919050565b60006200028c62000286620002808462000257565b62000261565b62000257565b9050919050565b6000819050919050565b620002a8836200026b565b620002c0620002b78262000293565b84845462000201565b825550505050565b600090565b620002d7620002c8565b620002e48184846200029d565b505050565b5b818110156200030c5762000300600082620002cd565b600181019050620002ea565b5050565b601f8211156200035b576200032581620001cf565b6200033084620001e4565b8101602085101562000340578190505b620003586200034f85620001e4565b830182620002e9565b50505b505050565b600082821c905092915050565b6000620003806000198460080262000360565b1980831691505092915050565b60006200039b83836200036d565b9150826002028217905092915050565b620003b68262000131565b67ffffffffffffffff811115620003d257620003d16200013c565b5b620003de82546200019a565b620003eb82828562000310565b600060209050601f8311600181146200042357600084156200040e578287015190505b6200041a85826200038d565b8655506200048a565b601f1984166200043386620001cf565b60005b828110156200045d5784890151825560018201915060208501945060208101905062000436565b868310156200047d578489015162000479601f8916826200036d565b8355505b6001600288020188555050505b505050505050565b61258980620004a26000396000f3fe6080604052600436106101145760003560e01c80636352211e116100a0578063a0712d6811610064578063a0712d681461038c578063a22cb465146103a8578063b88d4fde146103d1578063c87b56dd146103ed578063e985e9c51461042a57610114565b80636352211e1461029157806370a08231146102ce5780638da5cb5b1461030b578063953637311461033657806395d89b411461036157610114565b806318160ddd116100e757806318160ddd146101da57806323b872dd146102055780632c5f13e01461022157806342842e0e1461025e578063434645b41461027a57610114565b806301ffc9a71461011957806306fdde0314610156578063081812fc14610181578063095ea7b3146101be575b600080fd5b34801561012557600080fd5b50610140600480360381019061013b91906119b8565b610467565b60405161014d9190611a00565b60405180910390f35b34801561016257600080fd5b5061016b6104f9565b6040516101789190611aab565b60405180910390f35b34801561018d57600080fd5b506101a860048036038101906101a39190611b03565b61058b565b6040516101b59190611b71565b60405180910390f35b6101d860048036038101906101d39190611bb8565b61060a565b005b3480156101e657600080fd5b506101ef61074e565b6040516101fc9190611c07565b60405180910390f35b61021f600480360381019061021a9190611c22565b610765565b005b34801561022d57600080fd5b5061024860048036038101906102439190611b03565b610a87565b6040516102559190611aab565b60405180910390f35b61027860048036038101906102739190611c22565b610b33565b005b34801561028657600080fd5b5061028f610b53565b005b34801561029d57600080fd5b506102b860048036038101906102b39190611b03565b610d58565b6040516102c59190611b71565b60405180910390f35b3480156102da57600080fd5b506102f560048036038101906102f09190611c75565b610d6a565b6040516103029190611c07565b60405180910390f35b34801561031757600080fd5b50610320610e22565b60405161032d9190611b71565b60405180910390f35b34801561034257600080fd5b5061034b610e48565b6040516103589190611dae565b60405180910390f35b34801561036d57600080fd5b50610376610f21565b6040516103839190611aab565b60405180910390f35b6103a660048036038101906103a19190611b03565b610fb3565b005b3480156103b457600080fd5b506103cf60048036038101906103ca9190611dfc565b611094565b005b6103eb60048036038101906103e69190611f71565b61119f565b005b3480156103f957600080fd5b50610414600480360381019061040f9190611b03565b611212565b6040516104219190611aab565b60405180910390f35b34801561043657600080fd5b50610451600480360381019061044c9190611ff4565b6112b0565b60405161045e9190611a00565b60405180910390f35b60006301ffc9a760e01b827bffffffffffffffffffffffffffffffffffffffffffffffffffffffff191614806104c257506380ac58cd60e01b827bffffffffffffffffffffffffffffffffffffffffffffffffffffffff1916145b806104f25750635b5e139f60e01b827bffffffffffffffffffffffffffffffffffffffffffffffffffffffff1916145b9050919050565b60606002805461050890612063565b80601f016020809104026020016040519081016040528092919081815260200182805461053490612063565b80156105815780601f1061055657610100808354040283529160200191610581565b820191906000526020600020905b81548152906001019060200180831161056457829003601f168201915b5050505050905090565b600061059682611344565b6105cc576040517fcf4700e400000000000000000000000000000000000000000000000000000000815260040160405180910390fd5b6006600083815260200190815260200160002060000160009054906101000a900473ffffffffffffffffffffffffffffffffffffffff169050919050565b600061061582610d58565b90508073ffffffffffffffffffffffffffffffffffffffff166106366113a3565b73ffffffffffffffffffffffffffffffffffffffff1614610699576106628161065d6113a3565b6112b0565b610698576040517fcfb3b94200000000000000000000000000000000000000000000000000000000815260040160405180910390fd5b5b826006600084815260200190815260200160002060000160006101000a81548173ffffffffffffffffffffffffffffffffffffffff021916908373ffffffffffffffffffffffffffffffffffffffff160217905550818373ffffffffffffffffffffffffffffffffffffffff168273ffffffffffffffffffffffffffffffffffffffff167f8c5be1e5ebec7d5bd14f71427d1e84f3dd0314c0f7b2291e5b200ac8c7c3b92560405160405180910390a4505050565b60006107586113ab565b6001546000540303905090565b6000610770826113b0565b90508373ffffffffffffffffffffffffffffffffffffffff168173ffffffffffffffffffffffffffffffffffffffff16146107d7576040517fa114810000000000000000000000000000000000000000000000000000000000815260040160405180910390fd5b6000806107e38461147c565b915091506107f981876107f46113a3565b6114a3565b6108455761080e866108096113a3565b6112b0565b610844576040517f59c896be00000000000000000000000000000000000000000000000000000000815260040160405180910390fd5b5b600073ffffffffffffffffffffffffffffffffffffffff168573ffffffffffffffffffffffffffffffffffffffff16036108ab576040517fea553b3400000000000000000000000000000000000000000000000000000000815260040160405180910390fd5b6108b886868660016114e7565b80156108c357600082555b600560008773ffffffffffffffffffffffffffffffffffffffff1673ffffffffffffffffffffffffffffffffffffffff168152602001908152602001600020600081546001900391905081905550600560008673ffffffffffffffffffffffffffffffffffffffff1673ffffffffffffffffffffffffffffffffffffffff16815260200190815260200160002060008154600101919050819055506109918561096d8888876114ed565b7c020000000000000000000000000000000000000000000000000000000017611515565b600460008681526020019081526020016000208190555060007c0200000000000000000000000000000000000000000000000000000000841603610a175760006001850190506000600460008381526020019081526020016000205403610a15576000548114610a14578360046000838152602001908152602001600020819055505b5b505b838573ffffffffffffffffffffffffffffffffffffffff168773ffffffffffffffffffffffffffffffffffffffff167fddf252ad1be2c89b69c2b068fc378daa952ba7f163c4a11628f55a4df523b3ef60405160405180910390a4610a7f8686866001611540565b505050505050565b600a8181548110610a9757600080fd5b906000526020600020016000915090508054610ab290612063565b80601f0160208091040260200160405190810160405280929190818152602001828054610ade90612063565b8015610b2b5780601f10610b0057610100808354040283529160200191610b2b565b820191906000526020600020905b815481529060010190602001808311610b0e57829003601f168201915b505050505081565b610b4e8383836040518060200160405280600081525061119f565b505050565b600a80600181540180825580915050600190039060005260206000200160006040518060400160405280600981526020017f417369616e206d616e000000000000000000000000000000000000000000000081525090919091509081610bb99190612240565b50600a80600181540180825580915050600190039060005260206000200160006040518060400160405280600a81526020017f496e6469616e206d616e0000000000000000000000000000000000000000000081525090919091509081610c209190612240565b50600a80600181540180825580915050600190039060005260206000200160006040518060400160405280600a81526020017f6d6978656420726163650000000000000000000000000000000000000000000081525090919091509081610c879190612240565b50600a80600181540180825580915050600190039060005260206000200160006040518060400160405280600e81526020017f4361636175737369616e206d616e00000000000000000000000000000000000081525090919091509081610cee9190612240565b50600a80600181540180825580915050600190039060005260206000200160006040518060400160405280600b81526020017f4166726963616e206d616e00000000000000000000000000000000000000000081525090919091509081610d559190612240565b50565b6000610d63826113b0565b9050919050565b60008073ffffffffffffffffffffffffffffffffffffffff168273ffffffffffffffffffffffffffffffffffffffff1603610dd1576040517f8f4eb60400000000000000000000000000000000000000000000000000000000815260040160405180910390fd5b67ffffffffffffffff600560008473ffffffffffffffffffffffffffffffffffffffff1673ffffffffffffffffffffffffffffffffffffffff16815260200190815260200160002054169050919050565b600860009054906101000a900473ffffffffffffffffffffffffffffffffffffffff1681565b6060600a805480602002602001604051908101604052809291908181526020016000905b82821015610f18578382906000526020600020018054610e8b90612063565b80601f0160208091040260200160405190810160405280929190818152602001828054610eb790612063565b8015610f045780601f10610ed957610100808354040283529160200191610f04565b820191906000526020600020905b815481529060010190602001808311610ee757829003601f168201915b505050505081526020019060010190610e6c565b50505050905090565b606060038054610f3090612063565b80601f0160208091040260200160405190810160405280929190818152602001828054610f5c90612063565b8015610fa95780601f10610f7e57610100808354040283529160200191610fa9565b820191906000526020600020905b815481529060010190602001808311610f8c57829003601f168201915b5050505050905090565b600860009054906101000a900473ffffffffffffffffffffffffffffffffffffffff1673ffffffffffffffffffffffffffffffffffffffff163373ffffffffffffffffffffffffffffffffffffffff1614611043576040517f08c379a000000000000000000000000000000000000000000000000000000000815260040161103a90612384565b60405180910390fd5b6005811115611087576040517f08c379a000000000000000000000000000000000000000000000000000000000815260040161107e906123f0565b60405180910390fd5b6110913382611546565b50565b80600760006110a16113a3565b73ffffffffffffffffffffffffffffffffffffffff1673ffffffffffffffffffffffffffffffffffffffff16815260200190815260200160002060008473ffffffffffffffffffffffffffffffffffffffff1673ffffffffffffffffffffffffffffffffffffffff16815260200190815260200160002060006101000a81548160ff0219169083151502179055508173ffffffffffffffffffffffffffffffffffffffff1661114e6113a3565b73ffffffffffffffffffffffffffffffffffffffff167f17307eab39ab6107e8899845ad3d59bd9653f200f220920489ca2b5937696c31836040516111939190611a00565b60405180910390a35050565b6111aa848484610765565b60008373ffffffffffffffffffffffffffffffffffffffff163b1461120c576111d584848484611701565b61120b576040517fd1a57ed600000000000000000000000000000000000000000000000000000000815260040160405180910390fd5b5b50505050565b606061121d82611344565b611253576040517fa14c4b5000000000000000000000000000000000000000000000000000000000815260040160405180910390fd5b600061125d611851565b9050600081510361127d57604051806020016040528060008152506112a8565b80611287846118e3565b60405160200161129892919061244c565b6040516020818303038152906040525b915050919050565b6000600760008473ffffffffffffffffffffffffffffffffffffffff1673ffffffffffffffffffffffffffffffffffffffff16815260200190815260200160002060008373ffffffffffffffffffffffffffffffffffffffff1673ffffffffffffffffffffffffffffffffffffffff16815260200190815260200160002060009054906101000a900460ff16905092915050565b60008161134f6113ab565b1115801561135e575060005482105b801561139c575060007c0100000000000000000000000000000000000000000000000000000000600460008581526020019081526020016000205416145b9050919050565b600033905090565b600090565b600080829050806113bf6113ab565b11611445576000548110156114445760006004600083815260200190815260200160002054905060007c0100000000000000000000000000000000000000000000000000000000821603611442575b6000810361143857600460008360019003935083815260200190815260200160002054905061140e565b8092505050611477565b505b5b6040517fdf2d9b4200000000000000000000000000000000000000000000000000000000815260040160405180910390fd5b919050565b60008060006006600085815260200190815260200160002090508092508254915050915091565b600073ffffffffffffffffffffffffffffffffffffffff8316925073ffffffffffffffffffffffffffffffffffffffff821691508382148383141790509392505050565b50505050565b60008060e883901c905060e8611504868684611933565b62ffffff16901b9150509392505050565b600073ffffffffffffffffffffffffffffffffffffffff83169250814260a01b178317905092915050565b50505050565b60008054905060008203611586576040517fb562e8dd00000000000000000000000000000000000000000000000000000000815260040160405180910390fd5b61159360008483856114e7565b600160406001901b178202600560008573ffffffffffffffffffffffffffffffffffffffff1673ffffffffffffffffffffffffffffffffffffffff1681526020019081526020016000206000828254019250508190555061160a836115fb60008660006114ed565b6116048561193c565b17611515565b6004600083815260200190815260200160002081905550600080838301905073ffffffffffffffffffffffffffffffffffffffff85169150828260007fddf252ad1be2c89b69c2b068fc378daa952ba7f163c4a11628f55a4df523b3ef600080a4600183015b8181146116ab57808360007fddf252ad1be2c89b69c2b068fc378daa952ba7f163c4a11628f55a4df523b3ef600080a4600181019050611670565b50600082036116e6576040517f2e07630000000000000000000000000000000000000000000000000000000000815260040160405180910390fd5b8060008190555050506116fc6000848385611540565b505050565b60008373ffffffffffffffffffffffffffffffffffffffff1663150b7a026117276113a3565b8786866040518563ffffffff1660e01b815260040161174994939291906124c5565b6020604051808303816000875af192505050801561178557506040513d601f19601f820116820180604052508101906117829190612526565b60015b6117fe573d80600081146117b5576040519150601f19603f3d011682016040523d82523d6000602084013e6117ba565b606091505b5060008151036117f6576040517fd1a57ed600000000000000000000000000000000000000000000000000000000815260040160405180910390fd5b805181602001fd5b63150b7a0260e01b7bffffffffffffffffffffffffffffffffffffffffffffffffffffffff1916817bffffffffffffffffffffffffffffffffffffffffffffffffffffffff191614915050949350505050565b60606009805461186090612063565b80601f016020809104026020016040519081016040528092919081815260200182805461188c90612063565b80156118d95780601f106118ae576101008083540402835291602001916118d9565b820191906000526020600020905b8154815290600101906020018083116118bc57829003601f168201915b5050505050905090565b606060a060405101806040526020810391506000825281835b60011561191e57600184039350600a81066030018453600a81049050806118fc575b50828103602084039350808452505050919050565b60009392505050565b60006001821460e11b9050919050565b6000604051905090565b600080fd5b600080fd5b60007fffffffff0000000000000000000000000000000000000000000000000000000082169050919050565b61199581611960565b81146119a057600080fd5b50565b6000813590506119b28161198c565b92915050565b6000602082840312156119ce576119cd611956565b5b60006119dc848285016119a3565b91505092915050565b60008115159050919050565b6119fa816119e5565b82525050565b6000602082019050611a1560008301846119f1565b92915050565b600081519050919050565b600082825260208201905092915050565b60005b83811015611a55578082015181840152602081019050611a3a565b60008484015250505050565b6000601f19601f8301169050919050565b6000611a7d82611a1b565b611a878185611a26565b9350611a97818560208601611a37565b611aa081611a61565b840191505092915050565b60006020820190508181036000830152611ac58184611a72565b905092915050565b6000819050919050565b611ae081611acd565b8114611aeb57600080fd5b50565b600081359050611afd81611ad7565b92915050565b600060208284031215611b1957611b18611956565b5b6000611b2784828501611aee565b91505092915050565b600073ffffffffffffffffffffffffffffffffffffffff82169050919050565b6000611b5b82611b30565b9050919050565b611b6b81611b50565b82525050565b6000602082019050611b866000830184611b62565b92915050565b611b9581611b50565b8114611ba057600080fd5b50565b600081359050611bb281611b8c565b92915050565b60008060408385031215611bcf57611bce611956565b5b6000611bdd85828601611ba3565b9250506020611bee85828601611aee565b9150509250929050565b611c0181611acd565b82525050565b6000602082019050611c1c6000830184611bf8565b92915050565b600080600060608486031215611c3b57611c3a611956565b5b6000611c4986828701611ba3565b9350506020611c5a86828701611ba3565b9250506040611c6b86828701611aee565b9150509250925092565b600060208284031215611c8b57611c8a611956565b5b6000611c9984828501611ba3565b91505092915050565b600081519050919050565b600082825260208201905092915050565b6000819050602082019050919050565b600082825260208201905092915050565b6000611cea82611a1b565b611cf48185611cce565b9350611d04818560208601611a37565b611d0d81611a61565b840191505092915050565b6000611d248383611cdf565b905092915050565b6000602082019050919050565b6000611d4482611ca2565b611d4e8185611cad565b935083602082028501611d6085611cbe565b8060005b85811015611d9c5784840389528151611d7d8582611d18565b9450611d8883611d2c565b925060208a01995050600181019050611d64565b50829750879550505050505092915050565b60006020820190508181036000830152611dc88184611d39565b905092915050565b611dd9816119e5565b8114611de457600080fd5b50565b600081359050611df681611dd0565b92915050565b60008060408385031215611e1357611e12611956565b5b6000611e2185828601611ba3565b9250506020611e3285828601611de7565b9150509250929050565b600080fd5b600080fd5b7f4e487b7100000000000000000000000000000000000000000000000000000000600052604160045260246000fd5b611e7e82611a61565b810181811067ffffffffffffffff82111715611e9d57611e9c611e46565b5b80604052505050565b6000611eb061194c565b9050611ebc8282611e75565b919050565b600067ffffffffffffffff821115611edc57611edb611e46565b5b611ee582611a61565b9050602081019050919050565b82818337600083830152505050565b6000611f14611f0f84611ec1565b611ea6565b905082815260208101848484011115611f3057611f2f611e41565b5b611f3b848285611ef2565b509392505050565b600082601f830112611f5857611f57611e3c565b5b8135611f68848260208601611f01565b91505092915050565b60008060008060808587031215611f8b57611f8a611956565b5b6000611f9987828801611ba3565b9450506020611faa87828801611ba3565b9350506040611fbb87828801611aee565b925050606085013567ffffffffffffffff811115611fdc57611fdb61195b565b5b611fe887828801611f43565b91505092959194509250565b6000806040838503121561200b5761200a611956565b5b600061201985828601611ba3565b925050602061202a85828601611ba3565b9150509250929050565b7f4e487b7100000000000000000000000000000000000000000000000000000000600052602260045260246000fd5b6000600282049050600182168061207b57607f821691505b60208210810361208e5761208d612034565b5b50919050565b60008190508160005260206000209050919050565b60006020601f8301049050919050565b600082821b905092915050565b6000600883026120f67fffffffffffffffffffffffffffffffffffffffffffffffffffffffffffffffff826120b9565b61210086836120b9565b95508019841693508086168417925050509392505050565b6000819050919050565b600061213d61213861213384611acd565b612118565b611acd565b9050919050565b6000819050919050565b61215783612122565b61216b61216382612144565b8484546120c6565b825550505050565b600090565b612180612173565b61218b81848461214e565b505050565b5b818110156121af576121a4600082612178565b600181019050612191565b5050565b601f8211156121f4576121c581612094565b6121ce846120a9565b810160208510156121dd578190505b6121f16121e9856120a9565b830182612190565b50505b505050565b600082821c905092915050565b6000612217600019846008026121f9565b1980831691505092915050565b60006122308383612206565b9150826002028217905092915050565b61224982611a1b565b67ffffffffffffffff81111561226257612261611e46565b5b61226c8254612063565b6122778282856121b3565b600060209050601f8311600181146122aa5760008415612298578287015190505b6122a28582612224565b86555061230a565b601f1984166122b886612094565b60005b828110156122e0578489015182556001820191506020850194506020810190506122bb565b868310156122fd57848901516122f9601f891682612206565b8355505b6001600288020188555050505b505050505050565b7f4f6e6c79206f776e65722063616e20706572666f726d2074686973206163746960008201527f6f6e210000000000000000000000000000000000000000000000000000000000602082015250565b600061236e602383611a26565b915061237982612312565b604082019050919050565b6000602082019050818103600083015261239d81612361565b9050919050565b7f6f6e6c792035206e66747320746f206265206d696e7465640000000000000000600082015250565b60006123da601883611a26565b91506123e5826123a4565b602082019050919050565b60006020820190508181036000830152612409816123cd565b9050919050565b600081905092915050565b600061242682611a1b565b6124308185612410565b9350612440818560208601611a37565b80840191505092915050565b6000612458828561241b565b9150612464828461241b565b91508190509392505050565b600081519050919050565b600082825260208201905092915050565b600061249782612470565b6124a1818561247b565b93506124b1818560208601611a37565b6124ba81611a61565b840191505092915050565b60006080820190506124da6000830187611b62565b6124e76020830186611b62565b6124f46040830185611bf8565b8181036060830152612506818461248c565b905095945050505050565b6000815190506125208161198c565b92915050565b60006020828403121561253c5761253b611956565b5b600061254a84828501612511565b9150509291505056fea2646970667358221220982e4dfffaabf10724f3e260c5ee9af7636eabbe17c7b8ccff8126d5fa18dda364736f6c6343000812003368747470733a2f2f676174657761792e70696e6174612e636c6f75642f697066732f516d4e57514b5a335432466572565067416b4454754e4a4d545945444a634d48624545664a77624565676e4e5235",
  "linkReferences": {},
  "deployedLinkReferences": {}
}